:020000040000FA
:1000000050DA012095510100CDBC0500815101005D
:100010008151010081510100815101008151010094
:10002000000000000000000000000000E15301009B
:100030008151010000000000515301008151010075
:100040005D5601005D5601005D5601005D560100E0
:100050005D5601005D5601005D5601005D560100D0
:100060005D5601005D5601005D5601005D560100C0
:100070005D5601005D5601005D5601005D560100B0
:100080005D5601005D5601005D5601005D560100A0
:100090005D5601005D5601005D5601005D56010090
:1000A0005D5601005D5601005D5601005D56010080
:1000B0005D5601005D5601005D5601005D56010070
:1000C0005D5601005D5601005D5601005D56010060
:1000D0005D5601005D5601005D5601005D56010050
:1000E0005D5601005D5601005D5601005D56010040
:1000F0005D5601005D5601005D5601005D56010030
:100100005D5601005D5601005D5601005D5601001F
:100110005D5601005D5601005D5601005D5601000F
:100120005D5601005D5601005D5601005D560100FF
:100130005D5601005D5601005D5601005D560100EF
:100140005D5601005D5601005D5601005D560100DF
:040150005D560100F7
:1001580081F0004102E000BF83F0004330B54FEA70
:1001680041044FEA430594EA050F08BF90EA020FDD
:100178001FBF54EA000C55EA020C7FEA645C7FEA70
:10018800655C00F0E2804FEA5454D4EB5555B8BF93
:100198006D420CDD2C4480EA020281EA030382EA04
:1001A800000083EA010180EA020281EA0303362D96
:1001B80088BF30BD11F0004F4FEA01314FF4801C69
:1001C8004CEA113102D0404261EB410113F0004F7B
:1001D8004FEA03334CEA133302D0524263EB430332
:1001E80094EA050F00F0A780A4F10104D5F1200ED0
:1001F8000DDB02FA0EFC22FA05F2801841F100012B
:1002080003FA0EF2801843FA05F359410EE0A5F1FE
:1002180020050EF1200E012A03FA0EFC28BF4CF02F
:10022800020C43FA05F3C01851EBE37101F00045E5
:1002380007D54FF0000EDCF1000C7EEB00006EEBF2
:100248000101B1F5801F1BD3B1F5001F0CD349087C
:100258005FEA30004FEA3C0C04F101044FEA4452D3
:1002680012F5800F80F09A80BCF1004F08BF5FEA5A
:10027800500C50F1000041EB045141EA050130BD3A
:100288005FEA4C0C404141EB0101013C28BFB1F54C
:10029800801FE9D291F0000F04BF01460020B1FA97
:1002A80081F308BF2033A3F10B03B3F120020CDA6A
:1002B8000C3208DD02F1140CC2F10C0201FA0CF048
:1002C80021FA02F10CE002F11402D8BFC2F1200CAD
:1002D80001FA02F120FA0CFCDCBF41EA0C01904063
:1002E800E41AA2BF01EB0451294330BD6FEA0404AC
:1002F8001F3C1CDA0C340EDC04F11404C4F1200297
:1003080020FA04F001FA02F340EA030021FA04F3A8
:1003180045EA030130BDC4F10C04C4F1200220FAFF
:1003280002F001FA04F340EA0300294630BD21FA3D
:1003380004F0294630BD94F0000F83F4801306BF03
:1003480081F480110134013D4EE77FEA645C18BFF7
:100358007FEA655C29D094EA050F08BF90EA020F8E
:1003680005D054EA000C04BF1946104630BD91EA86
:10037800030F1EBF0021002030BD5FEA545C05D189
:100388004000494128BF41F0004130BD14F58004C8
:100398003CBF01F5801130BD01F0004545F0FE413C
:1003A80041F470014FF0000030BD7FEA645C1ABF71
:1003B800194610467FEA655C1CBF0B46024650EAA8
:1003C800013406BF52EA033591EA030F41F40021D4
:1003D80030BD00BF90F0000F04BF0021704730B55A
:1003E8004FF4806404F132044FF000054FF000012F
:1003F80050E700BF90F0000F04BF0021704730B5F0
:100408004FF4806404F1320410F0004548BF4042C4
:100418004FF000013EE700BF42004FEAE2014FEA19
:1004280031014FEA02701FBF12F07F4393F07F4FF4
:1004380081F06051704732F07F4208BF704793F0F7
:100448007F4F04BF41F40021704730B54FF460740A
:1004580001F0004521F000411CE700BF50EA01020D
:1004680008BF704730B54FF000050AE050EA0102B6
:1004780008BF704730B511F0004502D5404261EB26
:1004880041014FF4806404F132045FEA915C3FF467
:10049800D8AE4FF003025FEADC0C18BF03325FEA04
:1004A800DC0C18BF033202EBDC02C2F1200300FAB5
:1004B80003FC20FA02F001FA03FE40EA0E0021FADA
:1004C80002F11444BDE600BF70B54FF0FF0C4CF4C8
:1004D800E06C1CEA11541DBF1CEA135594EA0C0F7A
:1004E80095EA0C0F00F0DEF82C4481EA030621EAB5
:1004F8004C5123EA4C5350EA013518BF52EA0335F0
:1005080041F4801143F4801338D0A0FB02CE4FF0A1
:100518000005E1FB02E506F00042E0FB03E54FF0D1
:100528000006E1FB03569CF0000F18BF4EF0010EC9
:10053800A4F1FF04B6F5007F64F5407404D25FEAC5
:100548004E0E6D4146EB060642EAC62141EA555178
:100558004FEAC52040EA5E504FEACE2EB4F1FD0CBA
:1005680088BFBCF5E06F1ED8BEF1004F08BF5FEA38
:10057800500E50F1000041EB045170BD06F00046EA
:1005880046EA010140EA020081EA0301B4EB5C0497
:10059800C2BFD4EB0C0541EA045170BD41F480118F
:1005A8004FF0000E013C00F3AB8014F1360FDEBFB4
:1005B800002001F0004170BDC4F10004203C35DA90
:1005C8000C341BDC04F11404C4F1200500FA05F313
:1005D80020FA04F001FA05F240EA020001F00042B4
:1005E80021F0004110EBD37021FA04F642EB06012A
:1005F8005EEA430E08BF20EAD37070BDC4F10C0454
:10060800C4F1200500FA04F320FA05F001FA04F217
:1006180040EA020001F0004110EBD37041F1000103
:100628005EEA430E08BF20EAD37070BDC4F120050E
:1006380000FA05F24EEA020E20FA04F301FA05F276
:1006480043EA020321FA04F001F0004121FA04F21E
:1006580020EA020000EBD3705EEA430E08BF20EAEE
:10066800D37070BD94F0000F0FD101F00046400028
:1006780041EB010111F4801F08BF013CF7D041EAAA
:10068800060195F0000F18BF704703F000465200AE
:1006980043EB030313F4801F08BF013DF7D043EA7F
:1006A8000603704794EA0C0F0CEA135518BF95EA35
:1006B8000C0F0CD050EA410618BF52EA4306D1D1BC
:1006C80081EA030101F000414FF0000070BD50EADB
:1006D800410606BF1046194652EA430619D094EA65
:1006E8000C0F02D150EA013613D195EA0C0F05D14F
:1006F80052EA03361CBF104619460AD181EA0301A3
:1007080001F0004141F0FE4141F470014FF000005A
:1007180070BD41F0FE4141F4780170BD70B54FF0F5
:10072800FF0C4CF4E06C1CEA11541DBF1CEA135575
:1007380094EA0C0F95EA0C0F00F0A7F8A4EB050457
:1007480081EA030E52EA03354FEA013100F088804E
:100758004FEA03334FF0805545EA131343EA126317
:100768004FEA022245EA111545EA10654FEA0026CC
:100778000EF000419D4208BF964244F1FD0404F585
:10078800407402D25B084FEA3202B61A65EB0305E1
:100798005B084FEA32024FF480104FF4002CB6EB9E
:1007A800020E75EB030E22BFB61A754640EA0C001E
:1007B8005B084FEA3202B6EB020E75EB030E22BF5E
:1007C800B61A754640EA5C005B084FEA3202B6EB9F
:1007D800020E75EB030E22BFB61A754640EA9C005E
:1007E8005B084FEA3202B6EB020E75EB030E22BF2E
:1007F800B61A754640EADC0055EA060E18D04FEAEC
:10080800051545EA16754FEA06164FEAC30343EA8B
:1008180052734FEAC2025FEA1C1CC0D111F4801F58
:100828000BD141EA00014FF000004FF0004CB6E751
:1008380011F4801F04BF01430020B4F1FD0C88BFF0
:10084800BCF5E06F3FF6AFAEB5EB030C04BFB6EBFB
:10085800020C5FEA500C50F1000041EB045170BDEE
:100868000EF0004E4EEA113114EB5C04C2BFD4EB1B
:100878000C0541EA045170BD41F480114FF0000E9F
:10088800013C90E645EA060E8DE60CEA135594EA1B
:100898000C0F08BF95EA0C0F3FF43BAF94EA0C0F1E
:1008A8000AD150EA01347FF434AF95EA0C0F7FF493
:1008B80025AF104619462CE795EA0C0F06D152EAE7
:1008C80003353FF4FDAE1046194622E750EA4106CB
:1008D80018BF52EA43067FF4C5AE50EA41047FF4DC
:1008E8000DAF52EA43057FF4EBAE12E74FF0FF3C41
:1008F80006E000BF4FF0010C02E000BF4FF0010C12
:100908004DF804CD4FEA410C7FEA6C5C4FEA430C8A
:1009180018BF7FEA6C5C1BD001B050EA410C0CBFD9
:1009280052EA430C91EA030F02BF90EA020F00203B
:10093800704710F1000F91EA030F58BF994208BFA2
:1009480090422CBFD8176FEAE37040F0010070475F
:100958004FEA410C7FEA6C5C02D150EA013C07D1B6
:100968004FEA430C7FEA6C5CD6D152EA033CD3D001
:100978005DF8040B704700BF8446104662468C46FB
:100988001946634600E000BF01B5FFF7B7FF00282E
:1009980048BF10F1000F01BD4DF808EDFFF7F4FF57
:1009A8000CBF012000205DF808FB00BF4DF808EDE2
:1009B800FFF7EAFF34BF012000205DF808FB00BF05
:1009C8004DF808EDFFF7E0FF94BF012000205DF827
:1009D80008FB00BF4DF808EDFFF7CEFF94BF0120DC
:1009E80000205DF808FB00BF4DF808EDFFF7C4FFD5
:1009F80034BF012000205DF808FB00BF4FEA410C1E
:100A08007FEA6C5C02D150EA013C0AD14FEA430C00
:100A18007FEA6C5C02D152EA033C02D14FF000003D
:100A280070474FF0010070474FEA410212F500127B
:100A380015D211D56FF47873B3EB625212D94FEA1D
:100A4800C12343F0004343EA505311F0004F23FA07
:100A580002F018BF404270474FF00000704750EA5C
:100A6800013005D111F0004008BF6FF00040704719
:100A78004FF00000704700BF4A0011D212F5001273
:100A880011D20DD56FF47873B3EB62520ED44FEADE
:100A9800C12343F0004343EA505323FA02F070475E
:100AA8004FF00000704750EA013002D14FF0FF309C
:100AB80070474FF0000070474FEA4102B2F1E0433F
:100AC80024BFB3F5001CDCF1FE5C0DD901F0004C2D
:100AD8004FEAC0024CEA5070B2F1004F40EB83007D
:100AE80008BF20F00100704711F0804F21D113F1A9
:100AF8003872BCBF01F00040704741F480114FEAE2
:100B08005252C2F11802C2F1200C10FA0CF320FA6A
:100B180002F018BF40F001004FEAC1234FEAD32387
:100B280003FA0CFC40EA0C0023FA02F34FEA4303F1
:100B3800CCE77FEA625307D150EA01331EBF4FF07A
:100B4800FE4040F44000704701F0004040F0FE4095
:100B580040F40000704700BF7BB972B90029BEBFDE
:100B680000204FF0004106E008BF00281CBF6FF0CE
:100B780000414FF0FF3000F075B8ADF1080C6DE999
:100B880004CE002909DB002B1ADB00F0E3F8DDF8BE
:100B980004E0DDE9022304B07047404261EB410103
:100BA800002B1BDB00F0D6F8DDF804E0DDE90223BA
:100BB80004B0404261EB4101524263EB430370478A
:100BC800524263EB430300F0C5F8DDF804E0DDE9C9
:100BD800022304B0404261EB41017047524263EB8B
:100BE800430300F0B7F8DDF804E0DDE9022304B0C0
:100BF800524263EB4303704753B94AB9002908BF0F
:100C080000281CBF4FF0FF314FF0FF3000F02AB82A
:100C1800ADF1080C6DE904CE00F09CF8DDF804E0B5
:100C2800DDE9022304B07047D0B500220B4B06461D
:100C38000F46FFF749FCFFF71FFF0446FFF7CAFB03
:100C48000022074BFFF740FC02460B463046394668
:100C5800FFF782FAFFF710FF2146D0BD0000F03DF4
:100C68000000F041704700BF70B4840746D04C1EA6
:100C7800002941D0D5B2034602E0611EE4B30C4618
:100C880003F8015B9907F8D1032C2ED9D5B245EAB0
:100C980005250F2C45EA054519D9264603F110010B
:100CA800103E0F2E41F8105C41F80C5C41F8085CCE
:100CB80041F8045C01F11001F2D8A4F1100121F00F
:100CC8000F0104F00F041031032C0B440DD91E46FC
:100CD80021460439032946F8045BFAD8211F21F07C
:100CE800030104310B4404F003042CB1D2B21C44B8
:100CF80003F8012BA342FBD170BC70470C46034696
:100D0800C2E710F8012B11F8013B012A28BF9A42CB
:100D1800F7D0D01A7047034613F8012B002AFBD1ED
:100D2800181A0138704738B50022002304460D46CA
:100D3800FFF73CFE28B920462946BDE83840FFF7B2
:100D480073BF204605F10041FFF76EFF404261EB9B
:100D5800410138BD2DE9F04786468C460846089E75
:100D6800154674461946002B40F0C1808542B2FAF8
:100D780082F245D94AB1C2F1200300FA02FC95403B
:100D880094402EFA03F343EA0C0C4FEA154EA8B22E
:100D9800230CBCFBFEF80EFB18CC08FB00F943EA59
:100DA8000C43994528D9EB1808F1FF3704D2994527
:100DB80002D9A8F102072B44A3EB0903A4B2B3FBA1
:100DC800FEFC0EFB1C330CFB00F044EA0344A0427B
:100DD80014D92C190CF1FF3304D2A04202D9ACF17A
:100DE80002032C44241A43EA07401EB1D4400023CE
:100DF80034607360BDE8F0874746DDE76346F1E796
:100E080092BB431B01214FEA154EAFB2200CB3FB36
:100E1800FEFC0EFB1C330CFB07F840EA0343984525
:100E280061D9EB180CF1FF3004D2984502D9ACF126
:100E380002002B44A3EB0803A4B2B3FBFEFC0EFB99
:100E48001C330CFB07F744EA0344A7424DD92C197D
:100E58000CF1FF3304D2A74202D9ACF102032C44AF
:100E6800E41B43EA0040C0E7C2F1200395409440E8
:100E780020FA03F12EFA03F34FEA154E9040AFB271
:100E88000343B1FBFEFC0EFB1C10190C0CFB07F80E
:100E980041EA0041884522D969180CF1FF3004D293
:100EA800884502D9ACF102002944A1EB08019BB2A4
:100EB800B1FBFEFC0EFB1C110CFB07F743EA0143D8
:100EC8009F420ED9EB180CF1FF3104D29F4202D990
:100ED800ACF102012B44DB1B41EA004193E7604679
:100EE800E3E76146F7E76046A4E76346B8E783426D
:100EF80006D916B9002108467CE7C6E900E0F9E7FB
:100F0800B3FA83F78FB9834201D3724508D8BEEB91
:100F1800020460EB030301209C461EB9002169E727
:100F28003846FAE7C6E9004CF8E7C7F1200CBB40A1
:100F38000EFA07F522FA0CF42EFA0CF1BA401C430B
:100F480020FA0CF3B8404FEA144901431FFA84FE13
:100F5800B3FBF9F809FB18300B0C08FB0EFA43EA4F
:100F680000439A4540D9E31808F1FF3004D29A4566
:100F780002D9A8F102002344A3EB0A0389B2B3FB08
:100F8800F9F809FB183308FB0EFE41EA03418E45C8
:100F98002CD9611808F1FF3304D28E4502D9A8F183
:100FA8000203214443EA0040A1EB0E01A0FB029892
:100FB8004145CE46434602D306D14D4504D20138B9
:100FC800B9EB020E68EB0403002EA7D0B5EB0E02B6
:100FD80061EB030101FA0CFC22FA07F3F9404CEA31
:100FE8000303C6E9003199E74046C5E74346D9E718
:100FF80010B584460C460C48ACFB000108A3D3E9A5
:1010080000234FF0070E0EFB0C11FFF7F5FD074B01
:101018001B68074A02FB0300204410BDAFF30080A1
:1010280000CA9A3B000000008D49FD1A900D01206E
:101038000080841E000000002DE9F04D90B00446A9
:1010480040688368DB683C21984700281EDB60689D
:1010580083681B690EAA1F219847002816DB606861
:1010680083681B690CAA2121984700280EDB606859
:1010780083681B690AAA22219847002806DB364B99
:101088001B6803F00703022B03D8002010B0BDE84B
:10109800F08DD4F800800E98FFF7ACF904460D46A1
:1010A8000F98FFF7A7F92AA3D3E90023FFF736FB28
:1010B80002460B4620462946FFF750F882468B46E3
:1010C8000C98FFF797F904460D460D98FFF792F92B
:1010D8001FA3D3E90023FFF721FB02460B46204656
:1010E8002946FFF73BF804460D460A98FFF782F9B0
:1010F80006460F460B98FFF77DF915A3D3E90023A1
:10110800FFF70CFB02460B4630463946FFF726F838
:101118000022124BFFF7D8F9CDE9080100220F4B46
:1011280020462946FFF7D0F9CDE90601CDE904AB01
:10113800CDF80C800A4B02930024019400942346B6
:1011480003220549204656F0C9FD20469EE700BF08
:101158000000000080842E418027002000408F403E
:1011680004F60600000000002DE9F04F8DB009904C
:101178000D46174668F0E2FB4B0143EAD063440191
:10118800241A63EB01039B0043EA9473A400241818
:1011980043EB0101C90041EA5471C4F3103444EA35
:1011A80041444FEAD139012D65D07D6829463C4834
:1011B800FFF7A7FD28B129463A48FFF7A2FD002806
:1011C80061D135A3D3E9002320464946FFF7C4FC83
:1011D80080460A9130A3D3E9002320464946FFF709
:1011E800BBFC15461C46304A002328462146FFF71B
:1011F800B3FC06460F462C4A002328462146FFF733
:10120800ABFC15461C464EF66022002328462146B4
:10121800FFF7A2FC81460B914EF660220023284678
:101228002146FFF799FC15461C464FF47A720023B5
:1012380028462146FFF790FC83468A464FF47A7287
:10124800002328462146FFF787FCCDE90623CDF881
:1012580010B0CDF814A0CDF808900B9A0392009620
:10126800019742460A9B1149099859F09BFA0020B8
:101278000DB0BDE8F08F22464B460D49099859F04C
:1012880091FA0020F4E72A460A49099859F099FA90
:101298006FF00400ECE700BF005C260500000000CA
:1012A800500907005409070080EE36007809070046
:1012B8003C0907006009070010B5082140F6014005
:1012C80017F000FDD8B1044608210C3015F07CFA5F
:1012D80002460F4B93F8903013F0010F0BD10D48D5
:1012E8004FF000515CF0A5F80022214640F601407D
:1012F80018F0CEF910BD04A1D1E90001F2E76FF0B2
:101308006800F7E7AFF300809088000200800020B3
:10131800C01000201088000230B589B00C9D00284C
:101328003FD00446002949D0D0F8200110F0010F21
:1013380051D10020C4F80801C4F80C0104F58870E4
:10134800C4F81001C4F8140104F58C70C4F818012D
:10135800C4F81C01002D4BD0287900284AD101205F
:10136800C4F820019FED267B8DED067B00200490BC
:101378000393029001900094234B20463AF066FCB8
:1013880055B1296811B120463AF01AFB6B791BB1A7
:10139800237B43F001032373204668F063F909B007
:1013A80030BD1A4C40F2DF2322461949194857F03C
:1013B8008CFA40F2DF2120460AF0A6FF134C4FF4C6
:1013C800387322461449134857F07FFA4FF438719E
:1013D80020460AF099FF0D4C40F2E12322460F49BE
:1013E8000C4857F072FA40F2E12120460AF08CFFCF
:1013F8000120B5E740F20110B2E700BFAFF300806B
:10140800FFFFFFFFFFFFFFFF09AF030058C80700FA
:1014180040C9070010B8060048C9070050C90700AE
:101428002DE9F04F1F469DB000230C4682460F92CF
:1014380018934FF00008984B4FF000091D68284694
:10144800FFF769FC22468346179213782B2B3BD073
:101458002CD80D2B26D8082B26D8002B2FD00023CC
:101468000D93179E3378302B74D1737803F0DF0314
:10147800582B65D10D9B17A9884A5046019318AB84
:101488000297009319AB54F0F5F910F007050446DC
:1014980035D0062D1AD10F9B0BB101361E6042467E
:1014A8004B4637E0202BDAD10132CDE72D2BD6D1B0
:1014B80001230D93531C17935378002BD1D10F9B05
:1014C800002BECD01C60EAE70023F2E7189A3AB147
:1014D80035211AA868F0BFFF1899504654F04AFC05
:1014E800013D199A042D06D8DFE805F019032225D5
:1014F8001900DDE91A89210701D549F000490F9B38
:1015080013B1179B0F9A13600D9B002BC7D042464F
:1015180009F1004343EC102B1DB0BDE8F08FDDE965
:101528001A8302F2334223F4801343EA0259E2E7B2
:10153800DFF86C91DFE76FF000494FF0FF38DAE72A
:10154800179B5A1C17925B78302BF9D0002BD6D0FA
:10155800012300E00023002704930A22179BCDE90A
:1015680005770A9317980678A6F13003D9B20929A6
:1015780024D95A46294668F0A7FC00282DD0002017
:101588003246059D83460346652A01D0452A13D174
:101598001DB9049A024392D00025179C621C179229
:1015A80062782B2A6ED02D2A72D04FF0000CA2F14F
:1015B800300109297AD91794002699E00599013054
:1015C80008291790D7BF069902FB073702FB01339A
:1015D8000693059B01330593C4E7179B03EB0B02A6
:1015E800179213F80B20059BA3B383461D46A2F15F
:1015F8003003092B12D90123C6E7179B01305A1C67
:1016080017925A78302AF8D0A2F13103082B00F249
:10161800EF8483460020179B05460A93303A00F171
:10162800010311D09B4400EB050C2B460A216345AE
:1016380012D12B180135082B054419DC06990A2309
:1016480003FB012306930023179A1846511C179190
:101658005278CCE70598D5E7082B03F1010303DCA2
:10166800069E4E430696E2E7102BD8BF4F43DEE7AF
:101678000F2BDCBF0A2303FB0727E4E74FF0000B1F
:10168800012386E74FF0000CA21C1792A2788EE780
:101698004FF0010CF8E700BF98FB070080FB07003C
:1016A8000000F07F179A511C17915278302AF9D010
:1016B800A2F1310108293FF67FAF303A0792179A15
:1016C8000C92179A561C17965278A2F1300EBEF15A
:1016D800090F38D90C99761A082E44F61F6603DCD0
:1016E80007998E42A8BF0E46BCF1000F00D0764283
:1016F800002D4FD1049908437FF401AF002B7FF4EC
:10170800DEAE692A29D026DC492A26D04E2A7FF463
:10171800D6AE9B4917A868F041FD00283FF4CFAE2C
:10172800179B1B78282B2FD11AAA964917A868F05F
:1017380049FD052828D11B9BDDF8688043F0FF4947
:1017480049F4E009DBE6079E0A2101FB0621A1F125
:1017580030020792B5E76E2AD9E78B4917A868F0D7
:101768001DFD00283FF4ABAE179B17A88749013B26
:10177800179368F013FD10B9179B01331793DFF81F
:101788001C924FF00008BAE6814801F079FA59EC4A
:10179800108BB4E6A6EB0B0306982C460C93059B1E
:1017A800002B08BF2B46102D0593A8BF1024FEF769
:1017B80011FE092D8046894613DC0C9B002B3FF453
:1017C8009EAE0C9B78DD162B45DC7249424601EB38
:1017D800C3014B46D1E90001FEF776FE80468946F3
:1017E8008DE66C4B03EBC40353E91223FEF76CFE42
:1017F800804689463846FEF7EDFD02460B464046D0
:101808004946FEF7ABFC0F2D80468946D5DD2C1BDB
:101818000C9B1C44002C25DC00F0A280644214F0D0
:101828000F020AD05B4B4046494603EBC203D3E99B
:101838000023FEF773FF80468946241100F090804C
:101848001F2C40F3B18022234FF000084FF000090D
:10185800CAF8003053E6C5F125030C9A934219DA09
:101868002C1B144414F00F030AD04A49424601EBDA
:10187800C3014B46D1E90001FEF726FE80468946A2
:1018880034F00F046CD0B4F59A7F41DD2223CAF8F6
:10189800003074E7C5F10F053E4C42464B4604EB59
:1018A800C501D1E90001FEF70FFE0C9B5D1B04EB9F
:1018B800C504D4E900238FE71633A8DBABEB060297
:1018C800344B4046494603EBC203D3E90023FEF7F5
:1018D80025FF83E7002306932223DFF8C0904FF00B
:1018E8000008CAF800301899504654F043FA06998F
:1018F800504654F03FFA0599504654F03BFA109977
:10190800504654F037FA0799504654F033FAF6E542
:1019180000232411404649461F4F0493012C22DC22
:101928000BB180468946049BA9F154791A4942466D
:1019380001EBC3014B46D1E90001FEF7C5FD174B8A
:101948000A4680460B4016498B429FD8A1F5801164
:101958008B4286BFDFF84C904FF0FF3802F1547984
:10196800002304934BE0E20704D5D7E90023FEF7F0
:10197800ABFD0123049A6410083701320492CDE7C5
:10198800844708006CFB07007C470800AE47080046
:101998008A49080048B6060020B606000000F07F15
:1019A8000000A07CFFFFEF7F14F01003404649467B
:1019B800AA4F18BF6A2304930023E20704D5D7E986
:1019C8000023FEF781FD0123641007F10807F4D115
:1019D8000BB180468946049B43B1C9F30A52494674
:1019E800C2F16B03002B4EDC6A2304930022002310
:1019F80040464946FEF7D0FF00287FF424AF069BF7
:101A08005046059A00932B460A9954F01DFA1090F7
:101A180000283FF43BAF0C9BABEB060B002BB4BF8D
:101A28005B46002311930C9B23EAE3731393002373
:101A380007930593109B5046596854F05BF906903C
:101A480000283FF449AF109B0C301A6903F10C01D0
:101A58000232920068F0E1F81AAA19A9504649EC36
:101A6800108BCDE90A8954F0CBFC189000283FF47C
:101A780033AF0121504654F031FA03460590D0B9EE
:101A88000023059328E71F2B0EDD342B4FF00008A9
:101A9800DBBF4FF0FF33C2F14B024FF05C7993404C
:101AA800D8BF03EA01099FE74FF0FF3202FA03F3B8
:101AB80003EA080898E7199C1A9A002CA9BF119BF9
:101AC800139BE718139EB8BF1E1B049BB8BF119F3A
:101AD800E41A634B1444C2F13602013C9C4280F282
:101AE800B0801B1B01251F2BA2EB0302CDBFC4F145
:101AF8007F449D40002404F57F04C2BF04F57B4465
:101B0800E23405FA04F407EB020B049B16445F4524
:101B18001E443B46A8BF5B46B342A8BF3346002BD2
:101B2800C2BFABEB030BF61AFF1A119B002B16DD95
:101B38001A460599504654F091FA059000289FD00E
:101B48000146189A504654F0DFF90E9000283FF4E9
:101B5800C3AE1899504654F00DF90E9B1893BBF17B
:101B6800000F71DC0C9B002B08DD139A5046069978
:101B780054F074FA069000283FF4ACAE002E08DD4D
:101B880032460699504654F0C3FA069000283FF4AE
:101B9800A1AE002F08DD3A460599504654F0B8FA30
:101BA800059000283FF498AE069A5046189954F0CC
:101BB8001BFB079000283FF48FAEC36805990E936E
:101BC8000023C36068F0FAFB00284BDA0E9B53EA47
:101BD800080340F0BC80C9F31303002B40F0B78022
:101BE80029F000431B0D1B05B3F1D66F40F2AF80FF
:101BF800079B5B6923B9079B1B69012B40F3A780EF
:101C080001220799504654F083FA0599079068F025
:101C1800D5FB002840F39B8029F00043049A1B0D54
:101C28001B05002A79D0B3F1D66F6DD8B3F15C7F6C
:101C380046D84FF000084FF000092223CAF80030B8
:101C480051E6002401255EE75A461899504654F09B
:101C58005FFA1890002885D13EE600BFF8B5060067
:101C680002FCFFFFCB4640F0A3800E9AC9F3130392
:101C7800002A40D09C4A934258D1049B42467BB9E3
:101C8800B8F1FF3F40F08980984B99453FF424AE66
:101C9800974BDDF8108009EA030303F5801922E663
:101CA800934B09EA0303B3F1D46F16D918F1010174
:101CB8001BD18E4A91453FF40FAE03F5801980463B
:101CC8008C4B404649460022FEF7FEFB0B468046F9
:101CD800894603437FF407AEAFE71E0D4FF0FF318F
:101CE800C6F16B06B1408845E7D0002C5ED014EAF7
:101CF8000B0FE5D01EE0002B4AD1B8F1000F8BD0B6
:101D080064B314EA0B0F2BE0A3F580134FF0FF38F0
:101D18006FEA13596FEA0959D2E7A3F580134FF018
:101D2800FF386FEA13596FEA0959DCE59CB114EAE8
:101D3800090F0CD040464946049A68F00CF9DDE9D1
:101D48000A0153EC102BFEF709FA80468946049BDA
:101D5800002BB5D1C7E515EA080FEAE718EA050F21
:101D6800F5D0049A4046494668F0F5F8DDE90A01DD
:101D780053EC102BFEF7F0F90022002304460D4621
:101D8800FEF70AFE00287FF454AFA046A946DEE716
:101D9800002CB6D115EA080FE2E724B114EA090FBE
:101DA8003FF4A1ADC6E718EA050FF9E72A42A0E714
:101DB8000599079868F01DFB00224FF0804355EC09
:101DC800104B20462946FEF7FBFD00286DD00E9BE0
:101DD800002B78D1B8F1000F56D1C9F31303002BAB
:101DE80059D10022444B20462946FEF7DFFD002842
:101DF80058D1204629460022404BFEF765FB044691
:101E08000D4605F1004308940993394B0BEA030387
:101E18001293129A3A4B9A42DDE9086740F0A9807A
:101E2800ABF1547949EC108B54F076FADDE90823CC
:101E380051EC100BFEF748FB42464B46FEF78EF975
:101E48000B462B4980462F4A194091425CD90B9A80
:101E5800264B9A4203D10A9B01333FF43DADDFF88C
:101E68008C904FF0FF381899504653F083FF06992D
:101E7800504653F07FFF0599504653F07BFF079972
:101E8800504653F077FFD5E5B8F1010F03D1B9F10A
:101E9800000F3FF4CEAE0024174D9FED0F7B8DED64
:101EA800087BB2E70024154DABE7144B20462946C2
:101EB8000022FEF709FB0E9B04460D46002BA0D01E
:101EC800CDE90845A1E79FED067B55EC174B8DED55
:101ED800087B9AE7AFF30080000000000000F0BF25
:101EE800000000000000F03FFFFF0F00FFFFEF7F42
:101EF8000000F07F000050390000F03F0000E03F94
:101F08000000E07FFFFF9F7C03F15479049B4E465D
:101F1800002BA8D129F00043129A1B0D1B059A42E9
:101F2800A1D120462946FEF7FEFEC9F31306FEF7A7
:101F38009DFA0B4602462946204646EA0806FEF761
:101F48000BF90E9B04460D461E434BD02EA3D3E936
:101F58000023FEF72BFD00287FF4C5AC2046294658
:101F68002BA3D3E90023FEF73FFD00283FF47BAF06
:101F7800B9E4049B13B3129BB3F1D46F1ED8204667
:101F8800294625A3D3E90023FEF71AFD90B1294677
:101F98002046FEF771FD012838BF0120FEF71AFA26
:101FA8000E9B04460D46D3B901F1004314901593D6
:101FB800DDE9146707F1D663129A9F1A9DED0A0BA3
:101FC80054F0AAF93046394653EC102BFEF77CFA48
:101FD800DDE90A23FEF7C2F88046894696E7CDE98F
:101FE8001445E5E70EA3D3E90023FEF7DFFCBCE7C1
:101FF800652A3FF443AB452A3FF440AB0123FFF782
:1020080079BB00BFAFF300809535A094FFFFDF3F99
:1020180035E5AF350000E03F0000C0FFFFFFDF41BE
:102028009535A094FFFFCF3F2DE9F04F476A97B051
:102038008346209E08910C92129355EC104B8DED1F
:10204800000B7FB9102052F091FE0246CBF8240015
:1020580020B9A74BEA21A74854F030FAC0E9017724
:102068000760C760DBF82430196859B15A68012342
:10207800584693404A608B6053F07CFEDBF824306E
:1020880000221A602B1EB7BF23F000430023012251
:102098000193A8BF3360019F974BB8BF3260BB4321
:1020A80019D142F20F73129A1360C7F31303234333
:1020B80000F0DB85219B53B9904B21E0904B0393B3
:1020C8000833219A1360039817B0BDE8F08F8B4B43
:1020D80003930333F5E79DED007B0022002351ECC9
:1020E800170B8DED0A7BFEF757FC804650B1012394
:1020F800129A1360219B13B1824B219A1360824B71
:102108000393E0E7C7F30A5614AA15A958469DEDAC
:102118000A0B54F075F90290002E76D00B9BA6F2AC
:10212800FF36CDF84C80C3F3130343F07F53DDE94A
:102138000A0143F4401319460022744BFEF70CF8C9
:1021480065A3D3E90023FEF7BFF965A3D3E900230C
:10215800FEF704F804460D463046FEF74BF962A335
:10216800D3E90023FEF7B0F902460B46204629467C
:10217800FDF7F4FF04460D46FEF756FC002207461D
:10218800002320462946FEF711FC40B13846FEF7E9
:1021980031F922462B46FEF7FFFB00B9013F162F07
:1021A80052D85B4B03EBC703DDE90A01D3E90023EF
:1021B800FEF7FCFB002849D0013F00231193149B34
:1021C8009B1B5A1E4CBFC3F101030023079245BF56
:1021D8000693002306930793002F39DB079B10977C
:1021E8003B44079300230993089B092B66D8052BCA
:1021F800C5BF043B002401240893089B023B032B22
:1022080067D8DFE803F02D3A3859DDE914631E4436
:1022180006F23243202BC9BFC3F14003C3F12003A8
:102228009F4006F21243D8BF04FA03F006F1FF36C6
:10223800C4BF24FA03F347EA0300FEF7CBF80122F0
:10224800A1F1F873139276E70123B7E71190B6E787
:10225800069BDB1B06937B42099300231093C3E77D
:1022680000230D930C9B002B56DC012399461A463C
:1022780004930C920CE00123F3E700230D930C9BCD
:10228800FB1803F1010904934B46012BB8BF012346
:10229800DBF824000021042202F114059D423FD9F5
:1022A8004160584653F026FD039000283BD1194B56
:1022B80002464FF4D571CEE60123DFE7012400235F
:1022C8000D9408934FF0FF3300229946049312238C
:1022D800CFE701230D93F5E761436F63A787D23FEB
:1022E800B3C8608B288AC63FFB799F501344D33FFD
:1022F800B8470800CF4708000000F07FB44708003F
:10230800AB47080088470800874708000000F83FE7
:1023180048B60600434808000C9B99460493B7E763
:1023280001315200B8E7DBF82430B9F10E0F039AF7
:102338001A606FD8002C6DD0002F36DD07F00F0221
:10234800A04BF8054FEA271403EBC20393ED007B7B
:102358008DED0E7B17D59C4B04F00F044FF003084E
:10236800D3E90823DDE90A01FEF7D8F9CDE9000130
:10237800954D5CB9DDE90E23DDE90001FEF7CEF9E4
:10238800CDE900012BE04FF00208F1E7E10709D59C
:1023980008F10108DDE90E01D5E90023FEF794F8FC
:1023A800CDE90E0164100835E3E700F007817C42AF
:1023B800844B854D4FF0020804F00F02241103EB03
:1023C800C203DDE90A01D3E90023FEF77DF8002303
:1023D800CDE90001002C40F0E580002BD0D1119B05
:1023E800DDE90045002B00F04C810022774B2046A8
:1023F8002946FEF7DBFA002800F04381B9F1000F07
:1024080000F03F81049B002B00F3E480DDE90A34EF
:10241800CDE90034159B002B02DB0E2F40F34282DE
:102428000D9A002A40F06782099C0025DDF8188083
:10243800B8F1000F0DD0079B002B0ADD4345069A23
:10244800A8BF4346D21AA8EB03080692079AD31AE4
:102458000793099B0BB30D9B002B00F0A682002C61
:1024680000F0A18229462246584653F0F7FD029A09
:1024780001460546584653F047FD02990646584618
:1024880053F078FC099B1B1B099300F09182099A71
:102498003146584653F0E2FD02900121584653F068
:1024A8001DFD109B0446002B00F084821A4601464D
:1024B800584653F0D3FD089B0446012B03DC009BD0
:1024C800002B00F07C820026236904EB8303186943
:1024D80067F025FFC0F120001096079B184410F004
:1024E8001F0000F09182C0F12003042B40F3818289
:1024F800C0F11C00069B034480440693079B0344D9
:102508000793069B002B05DD1A460299584653F09F
:10251800FFFD0290079B002B05DD21461A46584611
:1025280053F0F6FD0446119B002B00F076822146FD
:10253800029867F043FF002880F26F8200230A2286
:102548000299584653F038FC0D9B7E1E0290002BD2
:1025580000F05C82002329460A22584653F02CFCDE
:10256800049B0546002B03DC089B022B00F35E82CC
:10257800B8F1000F05DD29464246584653F0C8FD1C
:102588000546109B002B00F0D0826968584653F02E
:10259800B1FB0746002840F07F820D4B024640F20F
:1025A800EA2158E5E20706D508F10108D5E9002334
:1025B800FDF78AFF0123641008350BE74FF0020886
:1025C8000DE700BF48B6060020B606000000F03F41
:1025D8004348080020460022AC4B2946FDF774FF0B
:1025E8007E1E08F10108049CCDE900014046FDF774
:1025F80001FFDDE90023FDF767FFA54B0022FDF78A
:10260800ADFDA1F15073CDE90E010F93002C3BD124
:102618000022A04BDDE90001FDF79EFD02460B46B6
:10262800CDE90023DDE90E23FEF7DEF9002840F0AE
:102638005781DDE90E2101F10043DDE90001FEF7D4
:10264800B5F900283FF4E2AE002425460C9BDDF8DE
:102658000CA0DE434FF000082146584653F08AFB91
:10266800002D00F0A980B8F1000F05D0A84503D0CF
:102678004146584653F07EFB2946584653F07AFBAC
:102688009AE03E464C46B1E7834B03EBC40353E95B
:102698000201039B1C440D9B002B4AD002460B46AB
:1026A80000207E49FEF73AF8DDE90E23FDF754FDD8
:1026B800DDF80CA0CDE90E01DDE90001FEF7B4F963
:1026C8000546FDF797FE024630350B46DDE9000169
:1026D800FDF742FD0AF8015B02460B46CDE9000111
:1026E800DDE90E01FEF780F9002865D100206C496C
:1026F800DDE90023FDF730FD02460B46DDE90E015A
:10270800FEF772F9002840F00D81A24500F0EA803A
:1027180000225E4BDDE90E01FDF7D6FE00225B4B81
:10272800CDE90E01DDE90001FDF7CEFECDE900019E
:10273800C2E7DDE90E23FDF7C7FEA046DDF80CA0D1
:10274800CDE90E01DDE90001FEF76EF90546FDF75A
:1027580051FE024630350B46DDE90001FDF7FCFC71
:102768000AF8015B02460B46A245CDE900234FF06B
:10277800000223D1494BDDE90E01FDF7EFFC0246CB
:102788000B46DDE90001FEF72FF9002840F0CA806A
:1027980000204249DDE90E23FDF7DEFC02460B4628
:1027A800DDE90001FEF702F970B1C24608F1FF3811
:1027B8001AF8013C302BF8D0374655E0334BFDF77B
:1027C80083FECDE90001BDE7DDE90A34CDE9003437
:1027D800159B002BFFF628AE0E2F3FF725AE2E4B8C
:1027E80003EBC70393ED007B0C9B002B8DED047B63
:1027F80002DAB9F1000F64D0DDF80CA0DDE900457C
:10280800DDE9042320462946FDF788FFFEF70CF989
:102818000646FDF7EFFDDDE90423FDF755FE024608
:10282800204606F130040B462946FDF795FC0AF8C8
:10283800014B039C02460B46AAEB0404A14540F059
:102848008280FDF78BFC04460D46DDE90423FEF784
:10285800CBF8002865D120462946DDE90423FEF798
:102868009BF808B1F3075CD40299584653F082FAF2
:10287800002301378AF80030129B1F60219B002B30
:102888003FF421ACC3F800A01DE400BF00002440C1
:1028980000001C400000144048B606000000E03F5D
:1028A8000000F03FA24B03EBC70393ED007B0C9BAA
:1028B800002B8DED047B9FDAB9F1000F9CDC7FF4CF
:1028C800C3AE00229B4BDDE90401FDF7FDFDDDE908
:1028D8000023FEF77FF8044600287FF4B5AE3E4695
:1028E8002546B4E0DDE90A34CDE90034159B002B18
:1028F80001DB0E2FD6DD089A012A36DC139A82B343
:1029080003F23343099CDDF81880069A01215846E2
:102918001A440692079A1A44079253F0DFFA0546BA
:1029280086E53E4653469A4613F8012D392A06D1C4
:10293800039A9A42F7D13022039901360A701A781D
:1029480001321A7038E700227B4BFDF7BDFD0022EB
:10295800002304460D46FEF71FF800283FF450AF49
:1029680082E7149BC3F13603CCE709F1FF34099BD6
:10297800A34208DBB9F1000FA3EB04040EDBDDF87A
:1029880018804B46C1E7099B109AE31A0994DDF8B1
:10299800188000241A444B461092B6E7069BA3EB16
:1029A80009080023B1E7029E71E5099A029970E5CA
:1029B800029672E5089B012B17DC009BABB9019BC3
:1029C800C3F313039BB9019B23F00046360D36056C
:1029D80036B1069B012601330693079B0133079303
:1029E800109B002B7FF470AD1096012075E5002632
:1029F800F6E73FF486AD1C33069A1A4498440692CB
:102A0800079A1A4407927CE50346F4E7049B002BD7
:102A18002BDC089B022B09DC27E0B9F1000F1DDC39
:102A2800089B022B1ADD3E46CDF81090049B002B24
:102A38007FF40CAE21460522584653F0BDF90146F5
:102A48000446029867F0BAFC00287FF7FFADDDF86E
:102A58000CA0312301360AF8013BFBE50D9B3E46ED
:102A6800CDF81090002B7FF483AD039F2146029888
:102A780067F08FFA039B00F13009049A07F8019B6D
:102A8800FB1A9A4240F3CB8000230A220299584647
:102A980053F092F90290E9E72A6905F10C010C302C
:102AA8000232920067F0B9F801223946584653F0CD
:102AB8002FFB039BA846054603F1010ADDE9032322
:102AC80013440793009B03F0010309930AF1FF33B2
:102AD80021460298049367F05CFA4146069000F19B
:102AE8003009029867F06AFC2A462146074658468C
:102AF80053F07AFBC268014602B3584653F03AF9DC
:102B0800002F3ADA01220299584653F001FB214678
:102B1800029067F053FC002803DC29D119F0010F5B
:102B280026D0B9F1390F1DD132E02846C1E700BFE0
:102B380048B6060000001440000024400A9002989D
:102B480067F03CFC0A990C90584653F013F90C9A1C
:102B58005ABB089B53B9099B43B9B9F1390F17D030
:102B6800002F05DD069B03F1310901E0002F2ADA69
:102B7800DDF810A00AF8019B6EE5089B3B4304D1E1
:102B8800009B03F00103002BBCD0B9F1390F36D1FB
:102B9800049F392307F8013BBA46013F1AF8013C64
:102BA800392B5AD001333B7056E5002F06DB089BC2
:102BB8003B4306D1009B03F0010313B9002AA1DCB3
:102BC800D6E7002AE1DC079B57460AF8019C5345E3
:102BD8002ED000230A220299584653F0EDF8A84552
:102BE80002904FF000034FF00A02414658460BD1BD
:102BF80053F0E2F8804605460AF1010A66E7DDF877
:102C080010A009F10109B5E753F0D6F82946804626
:102C180000230A22584653F0CFF80546ECE7049BF8
:102C28004FF00008002BCCBF1F460127039B1F4411
:102C380001220299584653F06BFA2146029067F038
:102C4800BDFB0028A8DC02D119F0010FA4D1BA46B7
:102C580017F8013D302BFAD0FEE4039BBB429BD111
:102C68003123039A01361370F6E4219B002B7FF47D
:102C780025AA014BFFF744BAAB4708000000000043
:102C88009FED010B704700BF000000000000F87FB7
:102C980010B588B0364B1B6803F00703022B1CD80D
:102CA800334B1B6803F00703022B27D80DF11F00D5
:102CB80009F01CFB9DF81F305BB3012B49D12D484F
:102CC8000CF07CFE044628B9294B1B6803F0070367
:102CD800022B34D8204608B010BD274B0593274B4C
:102CE8000493274B0393274B0293002001900090F5
:102CF800034603221E4954F0D8FCD1E7224B029325
:102D080000200190009003460322194954F0CDFC9D
:102D1800CCE71E480CF052FE04460028DAD1144BCA
:102D28001B6803F00703022BD4D9194B02930190B7
:102D38000090034603220E4954F0B7FCCAE7154B2E
:102D480002930190009003460322094954F0ADFC18
:102D5800C0E7114C382322461049114855F0B5FDFB
:102D6800104855F0B2FD3821204609F0CDFA00BFD1
:102D78002C27002090B806006CB8060010B7060093
:102D880044B8060018B7060064B7060094B80600F1
:102D980080B70600A0B70600C0B706008CE20600A0
:102DA80010B8060030B80600014B1870704700BF15
:102DB800C025002008B10068704710B5074C40F2E4
:102DC8009D2322460649074855F07FFD064855F0E1
:102DD8007CFD40F29D21204609F096FA98B806003D
:102DE800C8B8060010B80600DCB8060010B586B0F2
:102DF80000238DF81730FFF7DDFF04460DF11700AB
:102E080003F09EFD2378032B54D0062B28D0022BE9
:102E180010D03D4A126812F0060F11D003933B4BB5
:102E2800029300200190009003460222364954F094
:102E38004BFC05E0344B1B6803F00703022B01D859
:102E480006B010BD9DF817300393314B0293002054
:102E580001900090034603222B4954F035FCEFE71C
:102E6800294B1B6803F00703022B15D8606804F090
:102E7800CDFD0028E4D0244A126812F0070FDFD0F5
:102E88000390244B029300200190009003460122F6
:102E98001D4954F019FCD3E79DF8173003931E4BD6
:102EA800029300200190009003460322164954F033
:102EB8000BFCDBE7144B1B6803F00703022B18D845
:102EC800606804F0C5FD10F1780FB9D00028B7D0BC
:102ED8000D4B1B6813F0070FB2D003900F4B0293F2
:102EE80000200190009003460122074954F0ECFBB2
:102EF800A6E70B4B029300200190009003460322A3
:102F0800014954F0E1FBDBE75C270020C4B9060067
:102F1800F0B8060044B9060018B9060090B90600D2
:102F28007CB9060000B591B014E0BA22049203906F
:102F38009C4B0293002001900090034601229A497D
:102F480054F0C2FB17E09DF82430022B32D0974B87
:102F58001B7893BB4FF0FF324FF0FF33CDE90023CE
:102F680006AA0CA9924829F04DFD60B18E4A126854
:102F780012F0070FD9D1002383F31188BFF36F8FA5
:102F88000323184602DF9DF81820531E062B00F273
:102F9800528101A151F823F071300000473100003F
:102FA8004F2F00000F3000005D2F00003F3200005F
:102FB800ED31000000F0E4FFC9E701F0DDF8002082
:102FC800FFF7F2FE022008F073FA0028C2D0764A12
:102FD800126812F0070F08D1002383F31188BFF39A
:102FE8006F8F0323184602DFB4E7CE2204920390C2
:102FF8006C4B0293002001900090034601226A491D
:1030080054F062FBE8E7694B1B78012BA2D09DF8CE
:103018002430022B17D00120FFF7C6FE01F00EFA6C
:10302800022008F009FA002894D05F4A126812F0CA
:10303800070F0BD1002383F31188BFF36F8F03238E
:10304800184602DF86E700F0A3FFE4E7E1220492D6
:103058000390544B029300200190009003460122F4
:10306800514954F031FBE5E7002300930DAB0EAA5C
:103078009DF82410079806F0CDF888B14A4A1268DE
:1030880012F0060F3FF466AF03904A4B02930020FC
:103098000190009003460222434954F015FB59E77A
:1030A8009DF82430012B18D0022B7FF453AF002257
:1030B8000E990D9801F010F800283FF44BAF3A4AEA
:1030C800126812F0070F2CD1002383F31188BFF385
:1030D8006F8F0323184602DF3CE70D9A002108464C
:1030E80000F0FAFF00283FF435AF2F4A126812F0BB
:1030F800070F08D1002383F31188BFF36F8F0323D1
:10310800184602DF26E7F52204920390254B029326
:1031180000200190009003460122234954F0D4FA7C
:10312800E8E7F922049203901E4B029300200190D5
:103138000090034601221C4954F0C6FAC4E70FABBD
:10314800009300231A460121079806F063F888B116
:10315800154B1B6813F0070F3FF4FCAE0390154B9B
:103168000293002001900090034601220E4954F07A
:10317800ABFAEFE60F9802F02DF9F8B10A4B1B688D
:1031880013F0070F3FF4E6AE0F9B03930A4B02932D
:1031980000200190009003460122034954F094FA5C
:1031A800D8E600BFECB906005C270020C025002047
:1031B800ECB1060010BA06002CBA0600274B1B68B3
:1031C80003F00703022B7FF6C5AE0F9B0393244B36
:1031D8000293002001900090034603221F4954F0F7
:1031E80073FAB7E61D4B1B6813F0060F18D11321AD
:1031F800079803F0E3FB00283FF4ACAE174A1268C7
:1032080012F0070F3FF4A6AE0390164B029300206E
:103218000190009003460122104954F055FA99E6AE
:10322800114B0293002001900090034602220B49A3
:1032380054F04AFADBE7094B1B6813F0060F3FF41A
:1032480089AE0392094B0293002001900090034637
:103258000222024954F038FA7CE600BF5C270020BD
:1032680054BA0600B4BA060084BA0600D0BA0600FA
:1032780000B58BB04FF0FF324FF0FF3309A99748E4
:1032880029F040FB60B1964A126812F0070F2CD162
:10329800002383F31188BFF36F8F0323184602DFDF
:1032A80040F6CD42002307A9099829F0DFFA60B15A
:1032B8008B4A126812F0070F25D1002383F3118877
:1032C800BFF36F8F0323184602DF9DF82030012BD0
:1032D80027D1079A931E042B00F2EE80DFE813F043
:1032E80092007B003400D400A90049220492039084
:1032F8007C4B0293002001900090034601227849FC
:1033080054F0E2F9C4E74E2204920390754B0293FD
:1033180000200190009003460122714954F0D4F92D
:10332800CBE76F4B1B6813F0060F02D10BB05DF8AB
:1033380004FB6D4B0293002001900090034602228B
:10334800674954F0C1F9F1E704F0C2FEA8B10020C2
:1033580004F03EFB00288DD0614A126812F0060F77
:1033680088D00390614B029300200190009003469F
:1033780002225B4954F0A8F97CE704F0A9FE98B151
:10338800574B1B6813F0060F3FF474AF584B1B786C
:103398000393584B029300200190009003460222A9
:1033A8004F4954F091F965E704F0F4FA00283FF426
:1033B80061AF4B4A126812F0060F3FF45BAF0390FF
:1033C8004D4B02930020019000900346022244498D
:1033D80054F07AF94EE754F080FA00283FF44AAFE7
:1033E8003F4A126812F0060F3FF444AF0390434B74
:1033F800029300200190009003460222384954F0BD
:1034080063F937E754F06DFA00283FF433AF344AD4
:10341800126812F0060F3FF42DAF0390384B029359
:10342800002001900090034602222D4954F04CF9E7
:1034380020E72F4B1B7883B1294B1B6813F0060F2D
:103448003FF418AF2F4B02930020019000900346E1
:103458000222234954F038F90CE700F0DFFD002878
:103468003FF408AF1E4A126812F0060F3FF402AF8D
:103478000390254B029300200190009003460222FE
:10348800174954F021F9F5E6002004F0B7F90028AF
:103498003FF4F0AE124A126812F0060F3FF4EAAE9B
:1034A80003901A4B029300200190009003460222D9
:1034B8000B4954F009F9DDE6094B1B6813F0060FB8
:1034C8003FF4D8AE0392124B029300200190009073
:1034D80003460222024954F0F7F8CBE6E0B10600B1
:1034E8005C270020ECB90600F8BA060010BB0600FD
:1034F800C025002038BB060024BB060050BB0600D0
:1035080070BB060090BB0600A8BB0600CCBB06003B
:10351800E4BB060010B588B000220023CDE90623DD
:103528000023049305220392029301930093254BF1
:103538004FF400622449254838F088FB244B186072
:10354800244938F03DFA98B10446234B1B6813F020
:10355800070F02D1204608B010BD204B029300206F
:1035680001900090034601221B4954F0ADF8F1E7A1
:1035780000220023CDE906230023049305220392A9
:10358800029301930093164B4FF4006215491648B5
:1035980038F05CFB154B1860154938F011FA0446F1
:1035A8000028D7D00C4B1B6813F0070FD2D0114B53
:1035B800029300200190009003460122064954F02E
:1035C80083F8C7E779320000284601200830002038
:1035D8008059002008BC06005C27002018BC0600A3
:1035E8002D2F0000283E0120002F00207C590020AC
:1035F8003CBC060050BC060010B584B041F69A12D7
:1036080000233249324829F0ADFA98B10446314BCB
:103618001B6813F0070F02D1204604B010BD2E4BD3
:10362800029300200190009003460122294954F09A
:103638004BF8F1E741F69A1200232849284829F067
:1036480091FA044678B1234B1B6813F0070FE3D0B7
:10365800244B0293002001900090034601221D494B
:1036680054F032F8D8E741F69A1200231E491F4851
:1036780029F078FA044678B1164B1B6813F0070F47
:10368800CAD01B4B029300200190009003460122F0
:10369800104954F019F8BFE741F69A12002315496A
:1036A800154829F05FFA04460028B5D0094B1B6875
:1036B80013F0070FB0D0114B029300200190009037
:1036C80003460122034953F0FFFFA5E7E0B10600D6
:1036D80070B106005C27002078BC0600ECB106003B
:1036E80098B1060094BC0600D4B106005CB106008F
:1036F800B0BC060004B20600C0B10600CCBC06008F
:10370800F0B585B004460D461746022303703548C8
:103718000368636054F0E9F8A0B10646324B1B68B1
:1037280013F0070F02D1304605B0F0BD03902F4BC0
:103738000293002001900090034601222A4953F089
:10374800C3FFF0E7274854F00EF9064680B1264B30
:103758001B6813F0070FE6D00390254B0293002057
:1037680001900090034601221F4953F0ADFFDAE7AC
:103778004FF658611B4854F06BF8064680B11A4B57
:103788001B6813F0070FCED003901A4B029300204A
:103798000190009003460122134953F095FFC2E7B8
:1037A800691EC9B204F1080005F054FE051E05DBC8
:1037B80001350C4B9B8863703D60B4E70A4B1B686E
:1037C80013F0070F01D12E46ADE703950A4B02937C
:1037D80000200190009003460122034953F074FF32
:1037E800F1E700BF481300205C270020E8BC060072
:1037F80014BD060044BD060074BD0600014B1878D0
:10380800704700BFC025002010B588B0059006910C
:103818008DF81C201B4B1B780BB108B010BD08ABF2
:1038280013E9070005F06AFE044658B1164B1B68F9
:10383800834207D010F18C0F07D0144B1B6813F08C
:10384800060F12D1104B1C60E7E7104B1B6813F0F2
:10385800060FF7D00E4B029300200190009003460C
:1038680002220A4953F030FFECE70390094B029318
:1038780000200190009003460222044953F024FFDF
:10388800E0E700BFC0250020785900205C27002011
:10389800A4BD0600C0BD060010B588B09D4B1B68CE
:1038A80003F00703022B00F210810023069308F0AF
:1038B8007DFE68B1974A126812F0070F40F0108138
:1038C800002383F31188BFF36F8F0323184602DFA9
:1038D800904B1B6803F00703022B00F21081FFF7DF
:1038E800D7F968B18B4A126812F0070F40F01E81B1
:1038F800002383F31188BFF36F8F0323184602DF79
:10390800844B1B6803F00703022B00F21E8103F0AF
:1039180075F868B17F4A126812F0070F40F02081ED
:10392800002383F31188BFF36F8F0323184602DF48
:1039380000F038FE68B1774A126812F0070F40F0BD
:103948001E81002383F31188BFF36F8F032318466A
:1039580002DFFFF7DFFD044698B16E4B1B6813F0DA
:10396800070F40F01B816B4B1B6813F0070F40F0EB
:103978002281002383F31188BFF36F8F0323184636
:1039880002DFFFF739FE044698B1624B1B6813F05B
:10399800070F40F01F815F4B1B6813F0070F40F0C3
:1039A8002681002383F31188BFF36F8F0323184602
:1039B80002DF02F0DFFC044698B1564B1B6813F097
:1039C800070F40F02381534B1B6813F0070F40F09B
:1039D8002A81002383F31188BFF36F8F03231846CE
:1039E80002DF0DF11F0008F081FC9DF81F30002B4D
:1039F80040F028810121484805F0B8FD044698B1F7
:103A0800444B1B6813F0070F40F01E81414B1B68A5
:103A180013F0070F40F02581002383F31188BFF3CB
:103A28006F8F0323184602DF03F0FCFE68B1394AA2
:103A3800126812F0070F40F02381002383F31188E6
:103A4800BFF36F8F0323184602DF04F01FF868B135
:103A5800304A126812F0070F40F02181002383F3E7
:103A68001188BFF36F8F0323184602DF06AA1421BB
:103A78002A48FFF745FE68B1264A126812F0070F78
:103A880040F01C81002383F31188BFF36F8F032359
:103A9800184602DF01230193002000900346069A8E
:103AA8001E4903F013FD68B11A4A126812F0070F95
:103AB80040F01381002383F31188BFF36F8F032332
:103AC800184602DF002008B010BD154B02930020F5
:103AD80001900090034603220E4953F0F5FDE4E6F9
:103AE80040F21222049203900E4B029300200190A0
:103AF800009003460122074953F0E6FDE0E60A4B31
:103B0800029300200190009003460322014953F0DC
:103B1800DBFDE4E65C270020DD5F0000D8580020CC
:103B2800ECBD0600ECB9060004BE060040F2162201
:103B380004920390704B029300200190009003467A
:103B480001226E4953F0C0FDD2E66D4B029300206E
:103B58000190009003460322684953F0B5FDD6E66C
:103B680040F21A2204920390634B029300200190C2
:103B7800009003460122614953F0A6FDD0E640F2C9
:103B88001D22049203905C4B029300200190009048
:103B980003460122594953F097FDD2E6594B039346
:103BA800594B02930020019000900346012253498B
:103BB80053F08AFDD7E64FF40873049303944E4BF1
:103BC8000293002001900090034601224B4953F0D4
:103BD8007BFDCEE64D4B03934B4B029300200190A7
:103BE800009003460122454953F06EFDD3E640F2AA
:103BF800232304930394404B0293002001900090E8
:103C0800034601223D4953F05FFDCAE6404B03934A
:103C18003D4B029300200190009003460122374952
:103C280053F052FDCFE640F2262304930394324B1F
:103C38000293002001900090034601222F4953F07F
:103C480043FDC6E60221D6E6324B03932E4B029380
:103C580000200190009003460122284953F034FDCA
:103C6800D4E640F2312304930394234B02930020BB
:103C78000190009003460122204953F025FDCBE630
:103C88004FF40D72049203901B4B02930020019095
:103C9800009003460122194953F016FDCDE640F283
:103CA800372204920390144B029300200190009055
:103CB80003460122114953F007FDCFE640F23A22AC
:103CC800049203900C4B029300200190009003464D
:103CD80001220A4953F0F8FCD4E640F23D2204924E
:103CE8000390054B029300200190009003460122A7
:103CF800024953F0E9FCDDE6ECB906005C27002038
:103D080028BE06004CBE06007869070078BE06008B
:103D1800A4BE0600C4BE0600034B01221A705A75E1
:103D28001A759A715A717047F859002070B5ADF537
:103D3800396D0026CDF8846B73E0002383F3118876
:103D4800BFF36F8F0323184602DF04EB44000DF521
:103D5800396303EB84057E4B1A6855F8341CF7ABBE
:103D680003EB801065F059FF55F8341C79482DF0A5
:103D780065FF0134092C22DC4FF0FF324FF0FF338E
:103D8800CDE90023724A0DF65C3303EB84017148D8
:103D98002DF020FF0028D8D06F4A126812F0070FC4
:103DA800CBD08822049203906C4B029300200190A0
:103DB800009003460122684953F0A8FCBDE7684B10
:103DC8001B7BFBB1674B1B68002B34D10DF684338A
:103DD800654A4FF4F061F7A801F0FEFC044688B18B
:103DE8005D4B1B6813F0070F70D15B4B1B6813F01A
:103DF800070F78D1002383F31188BFF36F8F032354
:103E0800184602DFB6F57A7F7BD00136544B1B7B10
:103E18003BB1534B5A7DDDF8841B534B1868FFF7B1
:103E2800F3FC4FF0FF324FF0FF3301214F483AF0D7
:103E38008FFB00249EE74E4A00924E4A4FF4707161
:103E480007A82DF0DBFB60B1434A126812F0070F98
:103E580020D1002383F31188BFF36F8F0323184603
:103E680002DF06AB0093F7AB10224FF4707107A87E
:103E780060F0BFFF0028A9D0374A126812F0070F78
:103E880016D1002383F31188BFF36F8F03231846DD
:103E980002DF9BE7972204920390304B02930020A5
:103EA80001900090034601222B4953F02FFCD0E7E4
:103EB8009C2204920390294B0293002001900090C9
:103EC80003460122244953F021FCDAE72A4B0393E5
:103ED8002A4B0293002001900090034601221E49BC
:103EE80053F014FC81E7A223049303941B4B029321
:103EF80000200190009003460122174953F006FC68
:103F080078E70DF688320DF68C3112482DF0BEFE9A
:103F1800064600283FF47AAF0F4B1B6813F0070FD3
:103F280008D1002686F31188BFF36F8F0323184644
:103F380002DF6BE7A92304930390084B0293002048
:103F48000190009003460122034953F0DFFBE8E7A4
:103F58008C5900208013002050260020ECB9060060
:103F6800F859002094590020845900206C1300202F
:103F78008859002098590020E8BE06007869070093
:103F880008B5002101483AF057FC08BD185A00202E
:103F980008B5024865F0E6FD08BD00BF185A0020C4
:103FA80010B91A4B1860704700B587B0B7EE000A11
:103FB8004BF6803382B2154915482DF0D3FB60B11A
:103FC800144A126812F0070F0FD1002383F31188E7
:103FD800BFF36F8F0323184602DF0C4B1B68602B5F
:103FE80011D8002007B05DF804FBD022049203909A
:103FF800094B0293002001900090034601220549D5
:1040080053F084FBE1E76FF00B00EBE794590020D5
:104018009859002050260020ECB9060010B584B04D
:10402800284B1B68ABB9274B4FF47A721A60254BA3
:104038001B682BB3244A126802F00702022A13D81D
:10404800204B1868FFF7ACFF044650BB204604B06D
:1040580010BDB3F57A6F03D31A4B00221A60E6E756
:104068005B00184A1360E2E70393184B02930020A1
:104078000190009003460322134953F047FBDFE702
:10408800114B1B6803F00703022BD9D9104B02937D
:10409800002001900090034603220B4953F036FBA1
:1040A800CEE7094B1B6813F0070FCFD0094B0293DB
:1040B80000200190009003460122034953F026FB9B
:1040C800C4E700BF9059002050260020F8BE060023
:1040D80010BF060020BF060070B584B005460E4626
:1040E800144653F000FB88B1204B9D61204653F0E5
:1040F800FAFA08B31D4B01221A719C60002E31D0C8
:104108001A4B01221A731E6100202CE0002DEDD0FD
:10411800174B1B6813F0070F02D16FF0150022E050
:104128000395144B0293002001900090034601224E
:104138000F4953F0EBFAF0E7002CDFD00C4B1B686B
:1041480013F0070F02D16FF015000CE00394094B30
:10415800029300200190009003460122044953F085
:10416800D5FAF0E7002004B070BD00BFF859002070
:104178005026002040BF060010B588B0FFF7CCFDE0
:104188009A4B93F86430002B54D0994B93F86430D1
:10419800002B00F08480974C04F110030FCB8DE8BE
:1041A8000F0094E80F0001F0FFFD044698B1924B10
:1041B8001B6813F0070F40F0A8808F4B1B6813F0A3
:1041C800070F40F0AF80002383F31188BFF36F8F90
:1041D8000323184602DF874B01221A771B7B23B182
:1041E800864B1B68002B00F0AC8007F001FE68B11D
:1041F800814A126812F0070F40F0DA80002383F337
:104208001188BFF36F8F0323184602DF784801F047
:1042180029FA68B1784A126812F0070F40F0D7807F
:10422800002383F31188BFF36F8F0323184602DF3F
:1042380008B010BD6D482DF0B5FD04460028A4D087
:104248006D4B1B6813F0070F0DD16B4B1B6813F0F8
:10425800070F15D1002383F31188BFF36F8F032352
:10426800184602DF91E7664B0393664B02930020E2
:1042780001900090034601225F4953F047FAE4E7B2
:1042880040F27D13049303945F4B02930020019046
:10429800009003460122584953F038FADAE75448A7
:1042A8002DF080FD044600283FF475AF524B1B6883
:1042B80013F0070F0DD1504B1B6813F0070F15D1E2
:1042C800002383F31188BFF36F8F0323184602DF9F
:1042D80061E74E4B03934B4B0293002001900090F3
:1042E80003460122444953F011FAE4E74FF4C1733D
:1042F80004930394444B02930020019000900346DA
:1043080001223D4953F002FADAE7414B03933D4B52
:10431800029300200190009003460122364953F091
:10432800F5F94AE74FF4C37304930394364B0293A9
:10433800002001900090034601222F4953F0E6F92E
:1043480041E700220023CDE906230023049303223A
:1043580003920293019300932E4B42F6F8222E49C2
:104368002E4837F073FC254B18602D4937F028FB91
:1043780000283FF43AAF204A126812F0070F08D11C
:10438800002383F31188BFF36F8F0323184602DFDE
:104398002BE74FF4C872049203901B4B0293002042
:1043A8000190009003460122134953F0AFF9E7E763
:1043B8004FF4CC7204920390134B029300200190A7
:1043C8000090034601220C4953F0A0F916E740F289
:1043D8009B12049203900C4B0293002001900090D2
:1043E80003460122044953F091F919E7E813002024
:1043F80080130020F859002050260020285A002059
:1044080060BF060078690700ECB906007CBF0600AB
:1044180098BF0600353D0000284E012010310020CD
:10442800B0BF060010B50446FFF7A6FE02492046B5
:1044380056F0B8F9002010BDB8BF060010B586B018
:104448004A4B1B7F7BB94A4B1B6813F0060F51D0B0
:10445800484B0293002001900090034602224449F1
:1044680053F054F946E007F0F9FC60B1404A12688D
:1044780012F0070F40D1002383F31188BFF36F8F29
:104488000323184602DF01F035F960B1384A126893
:1044980012F0070F3FD1002383F31188BFF36F8F0A
:1044A8000323184602DF314C04F110030FCB8DE8CB
:1044B8000F0094E80F0001F0EDFB044688B12C4B87
:1044C8001B6813F0070F35D1294B1B6813F0070F32
:1044D8003DD1002383F31188BFF36F8F0323184660
:1044E80002DF224B00221A7723482DF007FC2348CD
:1044F8002DF004FC06B010BD4FF4D772049203905F
:104508001F4B029300200190009003460122184996
:1045180053F0FCF8AFE740F2B11204920390184B45
:10452800029300200190009003460122104953F0A5
:10453800EDF8B0E7134B0393134B0293002001905F
:104548000090034601220A4953F0E0F8BCE740F224
:10455800B513049303940A4B029300200190009032
:1045680003460122024953F0D1F8B2E7F859002076
:1045780050260020D0BF060080130020E81300203A
:10458800ECB90600ECBF06007869070010B50446D0
:10459800FFF754FF0249204656F004F9002010BDE9
:1045A80004C0060010B584B001F0BEF8D8B91F4B9E
:1045B8001B6803F00703022B27D807F05FFC0446AB
:1045C80000282DD0194B1B6813F0070F2BD0039030
:1045D800174B0293002001900090034601221349D3
:1045E80053F094F81FE00446104B1B6813F0070FB4
:1045F80019D003900F4B02930020019000900346BE
:1046080001220A4953F082F80DE00B4B0293002077
:104618000190009003460322044953F077F8CCE751
:10462800064865F09AFA204604B010BD50260020CE
:1046380074C006001CC0060044C00600185A0020BA
:10464800084AB2F80E3AB2F80C0A834205D38342FC
:1046580005D9C3F1780318447047C01A7047002081
:10466800704700BFC4CE00200C4B93F8803133B99B
:104678000A4B012283F88021036000207047074B12
:1046880093F881313BB9054B012283F88121C0336E
:104698000360002070476FF00B0070477C790020A2
:1046A800074B984203D0074B984204D0704700222A
:1046B80083F880217047C03B002283F88121F5E709
:1046C8007C7900203C7A0020034B002283F880216B
:1046D80083F88121704700BF7C79002008B500214C
:1046E800034B19704FF47072024865F0BDFA08BDAB
:1046F800F53D0120047B002008B5024836F0E6FDB0
:1047080008BD00BF5814002000B585B0174B93F8BA
:10471800003C83420BD0154B83F8000C144B1B68EC
:1047280003F00703022B12D805B05DF804FB104B09
:104738001B6813F0060FF7D00E4B02930020019070
:104748000090034602220A4953F01EF8ECE70A4B90
:1047580053F820300393094B0293002001900090F6
:1047680003460322024953F00FF8DDE7C4CE0020C8
:104778004826002054C1060054C906008CC1060012
:1047880038B54E4BD3F8F82BC3F8F42B93F8003C0C
:10479800032B04D8DFE803F0020B3C6602B938BDEE
:1047A800464BC3F8042C0120FFF7AEFFF7E7434957
:1047B800B1F8023C01339BB2A1F8023C632BEED95D
:1047C8000023A1F8023CD1F8043C9B1A03F5C3333B
:1047D800A0333B4A02FB03F33A4A82FB0302DB178E
:1047E800C3EBA21303F51B40A630C1F8080C03F66F
:1047F800CE3341F29C72934206D880B252F0B4FF95
:104808000220FFF781FFCAE70020FFF77DFFC6E718
:104818002A49B1F8023C01339BB2A1F8023C632B50
:10482800BDD90D460023A1F8023C0146104652F0BE
:104838007CFF00EBD0704410214B04FB03F3214AAA
:1048480082FB0312DB17C3EBA213D5F8080C18443C
:1048580080B252F089FF0F341E2CA0D80320FFF736
:1048680053FF9CE71549B1F8023C01339BB2A1F80C
:10487800023C632B93D90D460023A1F8023C014664
:10488800104652F052FF00EBD07044100C4B04FB62
:1048980003F30C4A82FB0312DB17C3EBA213D5F810
:1048A800080C184480B252F05FFF2034402C7FF689
:1048B80076AF0020FFF728FF71E700BFC4CE0020C5
:1048C80018FCFFFF019D7F31244B93F8103C834275
:1048D80042D010B586B00446204B83F8100C204B0C
:1048E8001B6803F00703022B14D8032C21D00320E4
:1048F80053F0ABF960B11A4B1B6813F0070F1CD1CA
:10490800002383F31188BFF36F8F0323184602DF58
:1049180006B010BD134B53F820300393124B02938B
:10492800002001900090034603220D4952F02CFF0D
:10493800DBE7032006F080FDDCE740F2691304930F
:1049480003900A4B02930020019000900346012235
:10495800034952F019FFD3E7704700BFC4CE0020C7
:104968004826002044C90600A0C10600ECB906008C
:104978002DE9F04184B0734B93F8003C032B11D11F
:1049880004460D4692B96F4BD3F8182C291B1144D5
:1049980093F8103C012B1BD0022B5FD073B104B0ED
:1049A800BDE8F0810020FFF78FFFF8E7654B002294
:1049B800A3F8122C0220FFF787FFE4E7614B0022DF
:1049C800A3F8122CC3F8142C0120FFF77DFFE6E7AB
:1049D8005C4AB2F8123C581CA2F8120C092B2FD9C9
:1049E800584B0022A3F8122CD3F8146C564B83FBB7
:1049F8000623F517C5EBA30505F2F31240F2E633DB
:104A08009A4227D90220FFF75FFF002DC7D016F181
:104A1800090F2FDB05F5FA754C4B83FB0523EF17C0
:104A2800C7EBA3174EF647639D4233DD484B1B681F
:104A380013F0060F21D13C27002F35DD00264BE06F
:104A48001346D2F8142CD3F8FC0B091A0A44C3F8FD
:104A5800142CA4E70320FFF737FFD6E7394AB2F84A
:104A6800123C591CA2F8121C0C2B98D90020FFF7F5
:104A78002BFF94E7A5F5FA75CEE70395354B02931E
:104A880000200190009003460222314952F07CFE3A
:104A98003C27D1E7304B9D42CEDA2D4B1B6813F0F3
:104AA800060F06D16FF03B07002FBFF678AF002244
:104AB8003CE00395274B02930020019000900346A9
:104AC8000222234952F060FE6FF03B07ECE7002317
:104AD8001C4AA2F80C3A0136B7427FF760AF1F4D67
:104AE80005F5A048B8F80C3A03EB43004001043040
:104AF80005EB4000C0220021043065F0B5F8BA1B70
:104B0800B8F80C3A4FF47A7101FB124203F5B4512C
:104B1800023105EB8105AA60762BD8D801339BB208
:104B2800D6E777230749A1F80C3A013ABA427FF74A
:104B380036AF044BB3F80C3A002BF2D0013B9BB2D2
:104B4800F0E700BFC4CE002067666666D34D6210EA
:104B580048260020B4C10600B911FFFFC47E00201A
:104B680070B58AB00023099308936C4BB3F80E3ADA
:104B7800002B79D0013B9BB2694D05F5A042A2F804
:104B88000E3A03EB43025201043205EB42050435A9
:104B9800002B6BD0013B9BB2614800F5A042A2F804
:104BA8000E3A03EB43046401043400EB4404043478
:104BB80007AA06A980682DF069F8069B13B9079B18
:104BC80003B988B1574B1B6813F0070F50D1554BE9
:104BD8001B6813F0070F58D1002383F31188BFF324
:104BE8006F8F0323184602DF0022002309A94C48CF
:104BF80080682CF049FF064688B14A4B1B6813F0C1
:104C0800070F53D1474B1B6813F0070F5BD10023E5
:104C180083F31188BFF36F8F0323184602DF002246
:104C2800002308A93E4880682CF02EFF064688B16C
:104C38003C4B1B6813F0070F54D13A4B1B6813F019
:104C4800070F5CD1002383F31188BFF36F8F032311
:104C5800184602DF0999284605F012FC08992046F3
:104C680005F0BAFB0AB070BD772385E7772393E791
:104C78002D4B03932D4B0293002001900090034687
:104C88000122284952F080FDA1E740F20333049342
:104C98006FF00B030393264B0293002001900090C2
:104CA800034601221F4952F06FFD95E7214B0393FC
:104CB8001E4B0293002001900090034601221949DF
:104CC80052F062FD9EE74FF4427304930396184B2B
:104CD800029300200190009003460122114952F0EE
:104CE80053FD94E7134B0393104B0293002001905C
:104CF8000090034601220B4952F046FD9DE740F221
:104D08000B33049303960A4B029300200190009002
:104D180003460122034952F037FD93E7C4CE002031
:104D2800C47E002048260020F0C1060078690700EC
:104D3800ECB9060004C2060010B59EB00446264B26
:104D48000093264B1B68264A602106A82CF056FCC7
:104D580060B1244A126812F0070F1FD1002383F3B1
:104D68001188BFF36F8F0323184602DF03230093D4
:104D7800602306AAC02120462CF08CFC60B1194A99
:104D8800126812F0070F18D1002383F31188BFF3BC
:104D98006F8F0323184602DF1EB010BD4FF40B724D
:104DA80004920390104B0293002001900090034658
:104DB80001220C4952F0E8FCD0E74FF40C7204923F
:104DC8000390094B029300200190009003460122B2
:104DD800044952F0D9FCD7E76C790020007B002009
:104DE800047B002048260020ECB9060070B58AB084
:104DF8000546079116461046FFF752FC8B4B03F504
:104E0800A042B2F80E4A04F5B451023103EB810313
:104E18009B68EB1AC2F8FC3B36B3762C01D80134F8
:104E280000E00024824BB3F80C3AA3427FD0804BB9
:104E3800A3F80E4A7F4B1B783BB17E4B00221A70B9
:104E48007D4B1B6813F0060F62D104EB4404640128
:104E58000434764B03EB44030433784A1360784BED
:104E68001B78002B40F0AF80079BDBB1C02207A95D
:104E78006E4B98682CF032FE044698B16E4B1B6856
:104E880013F0070F40F0A4806B4B1B6813F0070F5B
:104E980040F0AB80002383F31188BFF36F8F0323A7
:104EA800184602DF002200236649604880682CF01B
:104EB800EBFD044628B9644B1B6813F10C0F00F096
:104EC800A38014F10C0F00F0CF809CB15A4B1B68E3
:104ED80013F0070F40F01281574B1B6813F0070FB0
:104EE80040F01981002383F31188BFF36F8F0323E8
:104EF800184602DF534B1968504B186805F06CFAD6
:104F08004B4B93F80C3C002B40F014810AB070BD59
:104F1800474BD3F8F03B03934C4B02931046019256
:104F2800009213460222444952F02EFC8DE7FEF708
:104F380065FCB0B93F4B01221A703D4BD3F8F02BFA
:104F48000132C3F8F02B424BA3FB02131B0B41F2B7
:104F5800883101FB132323B9374B1B6813F0060F65
:104F680017D13648FFF780FB60B1334A126812F058
:104F7800070F19D1002383F31188BFF36F8F032321
:104F8800184602DFC02200212C4B186864F06CFE22
:104F980065E703922F4B029301900090034602228B
:104FA800254952F0F1FBDCE740F2A7220492039076
:104FB800294B0293002001900090034601221E49CC
:104FC80052F0E2FBD6E71D4B1868FFF7B5FE4BE73A
:104FD800224B0393224B029300200190009003463A
:104FE8000122154952F0D0FB4EE74FF42F7304937A
:104FF8000394194B0293002001900090034601226C
:105008000D4952F0C1FB45E70B4B1B6813F0060F27
:1050180002D10D4B1C6054E7124B02930190009093
:1050280003460222044952F0AFFBF2E7C47E002097
:10503800C4CE0020F43D01204826002078790020C5
:10504800F53D012074790020707900201CC206000B
:105058005917B7D140C20600ECB906006CC2060069
:105068007869070084C20600344B1B68A34206D047
:10507800334B1B6813F0060F26D1304B1C600022FF
:105088000023CDE9002309AA08A92E4B98682CF023
:10509800A1FD60B12A4A126812F0070F1FD1002340
:1050A80083F31188BFF36F8F0323184602DF254C63
:1050B8000899A0682CF0C2FD002200232249A068AC
:1050C8002CF0E2FC044600E7204B029300200190FC
:1050D8000090034602221A4952F056FBCDE740F2EF
:1050E800D322049203901A4B02930020019000905F
:1050F80003460122124952F047FBD0E7154B0393B0
:10510800154B0293002001900090034601220C49A0
:1051180052F03AFBE0E640F2DB23049303940C4B95
:10512800029300200190009003460122044952F0A6
:105138002BFBD7E62846FFF723FBE7E6707900202C
:1051480048260020C47E002074790020A0C20600F2
:10515800ECB9060004C206007869070038B50546B0
:105168000024064B83F81C4C2046FFF7ADFB04498E
:10517800284655F017FB204638BD00BFC4CE002096
:10518800BCC2060008B5084B93F80C3C43B1064B6B
:10519800012283F81C2C054955F004FB002008BDAA
:1051A800034955F0FFFAF9E7C4CE0020E0C2060033
:1051B80004C3060010B504460A4B93F81C3C23B1FF
:1051C800094955F0EFFA002010BD064B002083F87E
:1051D8000C0CA3F8020CFFF797FA0449204655F087
:1051E800E1FAF0E7C4CE002034C3060068C3060025
:1051F80008B5044B012283F80C2C034955F0D2FA68
:10520800002008BDC4CE002090C3060030B583B08E
:10521800144B1B781BBB02460C464BF680331249D5
:1052280012482CF09FFA054618B92CB90D4B0122EB
:105238001A70284603B030BDE0034FF47A72002399
:1052480000F2E7300021FBF7D7FC02460B460020AE
:105258000021CDE90001064838F028FEE6E76FF0A6
:105268000F05E6E7F53D0120007B0020047B0020C8
:105278007828002008B5034864F0DBFB024836F0C4
:1052880025F808BD782800205814002010B50446D9
:10529800FFF7F0FF0249204655F084FA002010BDC0
:1052A800B8C306002DE9F0432DED028B83B0074605
:1052B800042954D11646506803783E4AD35C13F04B
:1052C800040F52D0B3681B783A4AD35C13F0040F2A
:1052D80052D00A22002150F0C3FA04461FFA80F87F
:1052E8000A220021B06850F0BBFA05461FFA80F97F
:1052F8000021F06850F060F9B0EE408AB5EEC00ABF
:10530800F1EE10FA3FD9F7EE007AB4EEE70AF1EEC3
:1053180010FA38DCA4B2AEB23346224626493846E3
:1053280055F040FAB0EE480A49464046FFF76EFF8E
:10533800054610F1100F2DD0B5BB18EE100AFBF77B
:105348006BF8CDE90001334622461C49384655F032
:1053580029FA284603B0BDEC028BBDE8F083184952
:1053680055F02FFA6FF01505F3E71649384655F052
:1053780028FA6FF01505ECE71349384655F021FA7D
:105388006FF01505E5E71149384655F01AFA6FF040
:105398001505DEE7FFF76EFFB0EE480A49464046BE
:1053A800FFF734FF0546C7E72A460949384655F04E
:1053B800F9F9C2E77746080074C40600B0C40600CD
:1053C800C4C3060010C406002CC4060048C4060066
:1053D80094C40600A0F59C53083B4DF2D862934252
:1053E80004D8184BC3F8180C0020704700B585B0D6
:1053F800154B1B6813F0060F09D1134B1B6813F0EC
:10540800060F10D16FF0150005B05DF804FB03908E
:105418000E4B0293002001900090034602220A4995
:1054280052F0B2F9E9E7074BD3F8183C0393084B5D
:10543800029300200190009003460222024952F094
:10544800A3F9DFE7C4CE002048260020E4C4060004
:105458000CC506002DE9F04389B00E46109F764929
:1054680091F80180B8F1000F1AD005461446994604
:1054780048B3724BD3F8F81BA14234D0002957D057
:10548800631A43F69722934240D8A3F51C53063B70
:10549800142B7BD901F51C5410344FF0000849E057
:1054A800674B1B6813F0060F02D109B0BDE8F08303
:1054B800644B029300200190009003460222604949
:1054C80052F062F9F1E75E4B1B6813F0070FD0D07A
:1054D8005D4B029300200190009003460122584939
:1054E80052F052F9C5E7002CC8D0554B1B6813F091
:1054F800060FDAD00394554B0293002001900090D8
:10550800034602224E4952F03FF9CEE74C4A126850
:1055180002F00702022A0DD903934D4B0293002093
:105528000190009003460322454952F02DF901E00D
:105538004FF00008414BC3F8F84B93F81C3C43BBB1
:1055480007AB0093434B4A463146284600F052FACF
:1055580020B13B4A126812F0060F20D1079BB3F521
:10556800F06F28D0364A126812F0060F9DD04FF41B
:10557800F06204920393384B02930020019000904C
:10558800034602222E4952F0FFF88EE74FF000083A
:10559800D0E7424621463846FFF7EAF9D0E70390BC
:1055A8002E4B0293002001900090034602222449CA
:1055B80052F0EAF8D2E7FFF743F80A30782804D81F
:1055C8001E4BB3F80C6A002412E01D4B1B6813F045
:1055D800060F3FF46AAF224B02930020019000901F
:1055E80003460222164952F0CFF85EE7002601343E
:1055F800092C1DD806EB4600400104300E4D05EB82
:1056080040006B6804EB4401C02203EB81110430B5
:1056180064F003FB4FF47A7303FB047306F5B4528A
:10562800023205EB8205AB60762EDFD80136DEE765
:10563800024BA3F80C6A38E7C47E0020C4CE0020D1
:10564800482600202CC5060040C5060058C506009F
:105658008CC50600C87E0020E0C50600C4C506004B
:1056680010C6060010B584B0A8B11C4B1B78FBB15E
:105678001A4B5B787BBB194CA06045F6E8320021D9
:1056880004F10C0064F0F0FAFFF76AFA0123637082
:10569800002004B010BD124C4FF47D73224611490E
:1056A800114853F012F94FF47D71204606F02CFE94
:1056B8000E4B1B6813F0060F02D16FF08B00E8E762
:1056C8000B4B0293002001900090034602220749E9
:1056D80052F05AF8F1E76FF07700DAE7C47E00205D
:1056E80048C6060090C6060010B8060048260020E6
:1056F800A8C6060038B50B4B5B787BB1094D002472
:105708006C7052F050F805F5A045C5F8F84BC5F88F
:10571800F44B2046FFF7D8F8204638BD6FF07700E5
:10572800FBE700BFC47E002010B50D4C45F62042B3
:105738000021204664F098FA0A4804F01BFF04F0A0
:105748001FFF0123237004F5A04484F80C3C84F85F
:105758001C3C41F28833C4F8183C002010BD00BF3F
:10576800C47E0020F54D000010B586B014461A46D8
:105778008C4208D10A9B1A600B9B089A1A60002475
:10578800204606B010BD04940B9B03934FF470732E
:105798000293099B01930091089B02212CF000FDC4
:1057A800044618B90A9B099A1A60E9E7084B1B686E
:1057B80013F0070FE4D00390064B029300200190EA
:1057C800009003460122024951F0F3FFD8E700BFD9
:1057D800B027002064C906002DE9F04FADF62C7DF6
:1057E80006AF0446884616461D464FF4F0694A46F9
:1057F800002107F5F26064F037FA4A46002107F104
:10580800100064F031FA734B1B7B8BB1714B1B7822
:10581800012B20D0704A126812F0070F40F0CC809C
:105828006FF01208404607F61477BD46BDE8F08FC2
:10583800694B1B6813F0070F02D16FF00508F1E7F9
:10584800664B0293002001900090034601226249B2
:1058580051F0AFFFF1E7EA465E4B1B7D9B00073333
:1058680003F4FF63ADEB030D0DF1180907F10C0309
:10587800019307F53563009307F5F263102241465B
:1058880020465FF024FB804660BB0446514B1B7DDD
:10589800A34236DDC4EB041107F1100202EB8113B9
:1058A8004C4A926907F10800039009EB84000290C2
:1058B8000193FB68009307F5F26303EB81134BF642
:1058C80080314FF4066C46480CFB0400FFF74CFF90
:1058D800834608B90134D9E73F4B1B6813F0070F1B
:1058E80002D1D846D5469DE7049003943D4B0293D8
:1058F80000200190009003460122374951F059FFDA
:10590800EFE7012B09D0022B1DD0334A126812F0A1
:10591800070F3FD16FF01208E4E7D9F80000B96823
:10592800BB1D0293304B01934FF49B7300930023EC
:105938001A460EF0C5FB00283AD12B4B3360FB8882
:105948002B60D5466EE7D9F80000B968BB1D0293F5
:10595800254B01934FF49B73009300231A460EF0D6
:10596800AFFB08B18046BDE7D9F80400BA1DFB8833
:10597800B96802921C4A1A440192C3F59B739BB200
:105988000093012300220EF09BFB98B9FB885B0073
:10599800FB80D2E70393154B0293002001900090FF
:1059A800034601220C4951F004FF6FF0120899E7F1
:1059B800804697E7804695E703930D4B02930020B6
:1059C8000190009003460122034951F0F2FE6FF066
:1059D800120827E71C050120B027002088C9060007
:1059E8005CF40020ACC9060064E20020E0C90600AF
:1059F8000CCA06002DE9F04FADF6347D06AF7B608A
:105A08009B4B1B7933B306460D4690464FF4F06422
:105A18002246002107F5F36064F026F922460021AA
:105A280007F1180064F020F900237B613B61FB60FB
:105A38008F4B1B78012B20D08E4A126812F0070F6B
:105A480040F008816FF01204204607F61C77BD4627
:105A5800BDE8F08F874B1B6813F0070F02D16FF07A
:105A68000504F1E7844B029300200190009003465F
:105A78000122804951F09DFEF1E7EA467C4B5A79B4
:105A88009300073303F4FF63ADEB030D0DF1180921
:105A9800012A0BD0022A5BD0764B1B6813F0070F44
:105AA80040F0CA806FF01204D546CDE7CDF80880E3
:105AB80007F10C03019307F5F363009300234FF4F8
:105AC8007072A9B230460EF079FB04460028EBD17B
